{
    "contractName": "Addresses",
    "abi": [
        {
            "anonymous": false,
            "inputs": [
                {
                    "indexed": false,
                    "internalType": "address",
                    "name": "sender",
                    "type": "address"
                },
                {
                    "indexed": false,
                    "internalType": "string",
                    "name": "_name",
                    "type": "string"
                }
            ],
            "name": "wrongCall",
            "type": "event"
        },
        {
            "inputs": [],
            "name": "getAddr",
            "outputs": [
                {
                    "internalType": "address",
                    "name": "",
                    "type": "address"
                }
            ],
            "stateMutability": "view",
            "type": "function"
        },
        {
            "inputs": [],
            "name": "getBank",
            "outputs": [
                {
                    "internalType": "address",
                    "name": "",
                    "type": "address"
                }
            ],
            "stateMutability": "view",
            "type": "function"
        },
        {
            "inputs": [],
            "name": "getInsur",
            "outputs": [
                {
                    "internalType": "address",
                    "name": "",
                    "type": "address"
                }
            ],
            "stateMutability": "view",
            "type": "function"
        },
        {
            "inputs": [],
            "name": "getUser",
            "outputs": [
                {
                    "internalType": "address",
                    "name": "",
                    "type": "address"
                }
            ],
            "stateMutability": "view",
            "type": "function"
        },
        {
            "inputs": [
                {
                    "internalType": "address",
                    "name": "_address",
                    "type": "address"
                },
                {
                    "internalType": "string",
                    "name": "_contrName",
                    "type": "string"
                }
            ],
            "name": "setAddr",
            "outputs": [],
            "stateMutability": "nonpayable",
            "type": "function"
        }
    ],
    "bytecode": "608060405234801561001057600080fd5b506103b9806100206000396000f3fe608060405234801561001057600080fd5b50600436106100575760003560e01c8063259a6ac11461005c57806360d704db14610085578063832880e71461009657806393ad5e66146100a7578063a74c2bb6146100bc575b600080fd5b6001546001600160a01b03165b6040516001600160a01b03909116815260200160405180910390f35b6000546001600160a01b0316610069565b6002546001600160a01b0316610069565b6100ba6100b536600461024e565b6100c2565b005b30610069565b60408051808201909152600481526362616e6b60e01b6020918201528151908201207fea0ca03c7adbe41dc655fec28a9209dc8e6e042f3d991a67765ba285b9cf73a0141561012a57600080546001600160a01b0319166001600160a01b0384161790555050565b6040805180820190915260048152633ab9b2b960e11b6020918201528151908201207fcb61ad33d3763aed2bc16c0f57ff251ac638d3d03ab7550adfd3e166c2e7adb6141561019257600280546001600160a01b0319166001600160a01b0384161790555050565b60408051808201909152600581526434b739bab960d91b6020918201528151908201207f2c0cbbb71615fa6ae6eabff266d12bde15dc9b9eca859e0ab1a4b33cb71102a414156101fb57600180546001600160a01b0319166001600160a01b0384161790555050565b7f528292595dba0c3f99d0b0f0899d18d53155ba10e1cd01d2bef020097d2d71d4828260405161022c92919061031e565b60405180910390a15050565b634e487b7160e01b600052604160045260246000fd5b6000806040838503121561026157600080fd5b82356001600160a01b038116811461027857600080fd5b9150602083013567ffffffffffffffff8082111561029557600080fd5b818501915085601f8301126102a957600080fd5b8135818111156102bb576102bb610238565b604051601f8201601f19908116603f011681019083821181831017156102e3576102e3610238565b816040528281528860208487010111156102fc57600080fd5b8260208601602083013760006020848301015280955050505050509250929050565b60018060a01b038316815260006020604081840152835180604085015260005b8181101561035a5785810183015185820160600152820161033e565b8181111561036c576000606083870101525b50601f01601f19169290920160600194935050505056fea26469706673582212207a08520bea1b20967d55d81d110d7d5634a16589441472465f38e40b0c99134e64736f6c634300080b0033",
    "sourcePath": "c:/Users/groma/Documents/WorldSkillsPreparations/User.sol",
    "compiler": {
        "name": "solc",
        "version": "0.8.11+commit.d7f03943"
    },
    "functionHashes": {
        "getAddr()": "a74c2bb6",
        "getBank()": "60d704db",
        "getInsur()": "259a6ac1",
        "getUser()": "832880e7",
        "setAddr(address,string)": "93ad5e66"
    },
    "gasEstimates": {
        "creation": {
            "codeDepositCost": "190600",
            "executionCost": "232",
            "totalCost": "190832"
        },
        "external": {
            "getAddr()": "266",
            "getBank()": "2319",
            "getInsur()": "2286",
            "getUser()": "2341",
            "setAddr(address,string)": "infinite"
        }
    }
}