{
    "contractName": "Bank",
    "abi": [
        {
            "anonymous": false,
            "inputs": [
                {
                    "indexed": false,
                    "internalType": "address",
                    "name": "sender",
                    "type": "address"
                },
                {
                    "indexed": false,
                    "internalType": "uint256",
                    "name": "amount",
                    "type": "uint256"
                }
            ],
            "name": "receiveMoney",
            "type": "event"
        },
        {
            "anonymous": false,
            "inputs": [
                {
                    "indexed": false,
                    "internalType": "address",
                    "name": "sender",
                    "type": "address"
                },
                {
                    "indexed": false,
                    "internalType": "uint256",
                    "name": "amount",
                    "type": "uint256"
                }
            ],
            "name": "sendMoney",
            "type": "event"
        },
        {
            "inputs": [],
            "name": "bb",
            "outputs": [],
            "stateMutability": "payable",
            "type": "function"
        },
        {
            "inputs": [],
            "name": "getBalance",
            "outputs": [
                {
                    "internalType": "uint256",
                    "name": "",
                    "type": "uint256"
                }
            ],
            "stateMutability": "view",
            "type": "function"
        },
        {
            "inputs": [
                {
                    "internalType": "uint256",
                    "name": "_value",
                    "type": "uint256"
                }
            ],
            "name": "giveMoneyInsur",
            "outputs": [],
            "stateMutability": "nonpayable",
            "type": "function"
        }
    ],
    "bytecode": "608060405234801561001057600080fd5b5061018f806100206000396000f3fe6080604052600436106100345760003560e01c80630a9ae69d1461003957806312065fe014610043578063beb8a1d614610063575b600080fd5b610041610083565b005b34801561004f57600080fd5b504760405190815260200160405180910390f35b34801561006f57600080fd5b5061004161007e366004610140565b6100bd565b604080513381523460208201527fe8e8caa49c00808ca0e50595f43e7fc4e3a4286edfd5ad4de7ab640742e1fb22910160405180910390a1565b600080546040516001600160a01b039091169183156108fc02918491818181858888f193505050501580156100f6573d6000803e3d6000fd5b50600054604080516001600160a01b039092168252602082018390527fee4ae2c90c0e596a13fb2b5670be9946618a69bf6ae3e29b9d5542af9ee0e18b910160405180910390a150565b60006020828403121561015257600080fd5b503591905056fea26469706673582212205c63f1262760f98d723f1d3ef4777d44a93e084c922b08b677d350f4e7d0126a64736f6c634300080b0033",
    "sourcePath": "/Users/artem.gromov/Documents/blockchain/User.sol",
    "compiler": {
        "name": "solc",
        "version": "0.8.11+commit.d7f03943"
    },
    "functionHashes": {
        "bb()": "0a9ae69d",
        "getBalance()": "12065fe0",
        "giveMoneyInsur(uint256)": "beb8a1d6"
    },
    "gasEstimates": {
        "creation": {
            "codeDepositCost": "79800",
            "executionCost": "129",
            "totalCost": "79929"
        },
        "external": {
            "bb()": "1427",
            "getBalance()": "170",
            "giveMoneyInsur(uint256)": "infinite"
        }
    }
}