{
    "contractName": "User",
    "abi": [
        {
            "inputs": [
                {
                    "components": [
                        {
                            "internalType": "string",
                            "name": "number",
                            "type": "string"
                        },
                        {
                            "internalType": "uint256",
                            "name": "validity",
                            "type": "uint256"
                        },
                        {
                            "internalType": "string",
                            "name": "category",
                            "type": "string"
                        }
                    ],
                    "internalType": "struct User.DrivingLicence",
                    "name": "_dl0",
                    "type": "tuple"
                },
                {
                    "components": [
                        {
                            "internalType": "string",
                            "name": "number",
                            "type": "string"
                        },
                        {
                            "internalType": "uint256",
                            "name": "validity",
                            "type": "uint256"
                        },
                        {
                            "internalType": "string",
                            "name": "category",
                            "type": "string"
                        }
                    ],
                    "internalType": "struct User.DrivingLicence",
                    "name": "_dl1",
                    "type": "tuple"
                },
                {
                    "components": [
                        {
                            "internalType": "string",
                            "name": "number",
                            "type": "string"
                        },
                        {
                            "internalType": "uint256",
                            "name": "validity",
                            "type": "uint256"
                        },
                        {
                            "internalType": "string",
                            "name": "category",
                            "type": "string"
                        }
                    ],
                    "internalType": "struct User.DrivingLicence",
                    "name": "_dl2",
                    "type": "tuple"
                },
                {
                    "components": [
                        {
                            "internalType": "string",
                            "name": "number",
                            "type": "string"
                        },
                        {
                            "internalType": "uint256",
                            "name": "validity",
                            "type": "uint256"
                        },
                        {
                            "internalType": "string",
                            "name": "category",
                            "type": "string"
                        }
                    ],
                    "internalType": "struct User.DrivingLicence",
                    "name": "_dl3",
                    "type": "tuple"
                },
                {
                    "components": [
                        {
                            "internalType": "string",
                            "name": "number",
                            "type": "string"
                        },
                        {
                            "internalType": "uint256",
                            "name": "validity",
                            "type": "uint256"
                        },
                        {
                            "internalType": "string",
                            "name": "category",
                            "type": "string"
                        }
                    ],
                    "internalType": "struct User.DrivingLicence",
                    "name": "_dl4",
                    "type": "tuple"
                },
                {
                    "components": [
                        {
                            "internalType": "string",
                            "name": "number",
                            "type": "string"
                        },
                        {
                            "internalType": "uint256",
                            "name": "validity",
                            "type": "uint256"
                        },
                        {
                            "internalType": "string",
                            "name": "category",
                            "type": "string"
                        }
                    ],
                    "internalType": "struct User.DrivingLicence",
                    "name": "_dl5",
                    "type": "tuple"
                },
                {
                    "components": [
                        {
                            "internalType": "string",
                            "name": "number",
                            "type": "string"
                        },
                        {
                            "internalType": "uint256",
                            "name": "validity",
                            "type": "uint256"
                        },
                        {
                            "internalType": "string",
                            "name": "category",
                            "type": "string"
                        }
                    ],
                    "internalType": "struct User.DrivingLicence",
                    "name": "_dl6",
                    "type": "tuple"
                }
            ],
            "stateMutability": "nonpayable",
            "type": "constructor"
        },
        {
            "inputs": [],
            "name": "checkFinesAmount",
            "outputs": [
                {
                    "internalType": "uint256",
                    "name": "",
                    "type": "uint256"
                }
            ],
            "stateMutability": "view",
            "type": "function"
        },
        {
            "inputs": [
                {
                    "internalType": "string",
                    "name": "_FIO",
                    "type": "string"
                },
                {
                    "internalType": "uint256",
                    "name": "_startDrive",
                    "type": "uint256"
                },
                {
                    "internalType": "uint256",
                    "name": "_accidentAmount",
                    "type": "uint256"
                },
                {
                    "internalType": "uint256",
                    "name": "_notPayedFinesAmount",
                    "type": "uint256"
                },
                {
                    "internalType": "uint256",
                    "name": "_insuranceFee",
                    "type": "uint256"
                },
                {
                    "internalType": "uint256",
                    "name": "_balance",
                    "type": "uint256"
                },
                {
                    "internalType": "bool",
                    "name": "_isDPS",
                    "type": "bool"
                }
            ],
            "name": "createUser",
            "outputs": [],
            "stateMutability": "nonpayable",
            "type": "function"
        },
        {
            "inputs": [
                {
                    "components": [
                        {
                            "internalType": "address",
                            "name": "userAddr",
                            "type": "address"
                        },
                        {
                            "internalType": "string",
                            "name": "FIO",
                            "type": "string"
                        },
                        {
                            "components": [
                                {
                                    "internalType": "string",
                                    "name": "number",
                                    "type": "string"
                                },
                                {
                                    "internalType": "uint256",
                                    "name": "validity",
                                    "type": "uint256"
                                },
                                {
                                    "internalType": "string",
                                    "name": "category",
                                    "type": "string"
                                }
                            ],
                            "internalType": "struct User.DrivingLicence",
                            "name": "dl",
                            "type": "tuple"
                        },
                        {
                            "internalType": "uint256",
                            "name": "startDrive",
                            "type": "uint256"
                        },
                        {
                            "internalType": "uint256",
                            "name": "accidentAmount",
                            "type": "uint256"
                        },
                        {
                            "internalType": "uint256",
                            "name": "notPayedFinesAmount",
                            "type": "uint256"
                        },
                        {
                            "internalType": "uint256",
                            "name": "insuranceFee",
                            "type": "uint256"
                        },
                        {
                            "internalType": "uint256",
                            "name": "balance",
                            "type": "uint256"
                        },
                        {
                            "internalType": "bool",
                            "name": "isDPS",
                            "type": "bool"
                        }
                    ],
                    "internalType": "struct User.User_str",
                    "name": "_user",
                    "type": "tuple"
                }
            ],
            "name": "createUser",
            "outputs": [],
            "stateMutability": "nonpayable",
            "type": "function"
        },
        {
            "inputs": [],
            "name": "dlProlongation",
            "outputs": [],
            "stateMutability": "nonpayable",
            "type": "function"
        },
        {
            "inputs": [
                {
                    "internalType": "uint256",
                    "name": "_finesToPay",
                    "type": "uint256"
                }
            ],
            "name": "finePayment",
            "outputs": [],
            "stateMutability": "nonpayable",
            "type": "function"
        },
        {
            "inputs": [
                {
                    "internalType": "string",
                    "name": "_carCategory",
                    "type": "string"
                },
                {
                    "internalType": "uint256",
                    "name": "_price",
                    "type": "uint256"
                },
                {
                    "internalType": "uint256",
                    "name": "_age",
                    "type": "uint256"
                }
            ],
            "name": "registerCar",
            "outputs": [],
            "stateMutability": "nonpayable",
            "type": "function"
        },
        {
            "inputs": [
                {
                    "internalType": "string",
                    "name": "_number",
                    "type": "string"
                },
                {
                    "internalType": "uint256",
                    "name": "_validity",
                    "type": "uint256"
                },
                {
                    "internalType": "string",
                    "name": "_category",
                    "type": "string"
                }
            ],
            "name": "setDrivingLicence",
            "outputs": [],
            "stateMutability": "nonpayable",
            "type": "function"
        }
    ],
    "bytecode": "608060405260006004553480156200001657600080fd5b50604051620019fc380380620019fc833981016040819052620000399162000549565b866003886000015160405162000050919062000679565b908152602001604051809103902060008201518160000190805190602001906200007c9291906200032c565b50602082810151600183015560408301518051620000a192600285019201906200032c565b50508651604051889250600391620000b99162000679565b90815260200160405180910390206000820151816000019080519060200190620000e59291906200032c565b506020828101516001830155604083015180516200010a92600285019201906200032c565b50508551604051879250600391620001229162000679565b908152602001604051809103902060008201518160000190805190602001906200014e9291906200032c565b506020828101516001830155604083015180516200017392600285019201906200032c565b505084516040518692506003916200018b9162000679565b90815260200160405180910390206000820151816000019080519060200190620001b79291906200032c565b50602082810151600183015560408301518051620001dc92600285019201906200032c565b50508351604051859250600391620001f49162000679565b90815260200160405180910390206000820151816000019080519060200190620002209291906200032c565b506020828101516001830155604083015180516200024592600285019201906200032c565b505082516040518492506003916200025d9162000679565b90815260200160405180910390206000820151816000019080519060200190620002899291906200032c565b50602082810151600183015560408301518051620002ae92600285019201906200032c565b50508151604051839250600391620002c69162000679565b90815260200160405180910390206000820151816000019080519060200190620002f29291906200032c565b506020828101516001830155604083015180516200031792600285019201906200032c565b50504260055550620006d49650505050505050565b8280546200033a9062000697565b90600052602060002090601f0160209004810192826200035e5760008555620003a9565b82601f106200037957805160ff1916838001178555620003a9565b82800160010185558215620003a9579182015b82811115620003a95782518255916020019190600101906200038c565b50620003b7929150620003bb565b5090565b5b80821115620003b75760008155600101620003bc565b634e487b7160e01b600052604160045260246000fd5b60005b8381101562000405578181015183820152602001620003eb565b8381111562000415576000848401525b50505050565b600082601f8301126200042d57600080fd5b81516001600160401b03808211156200044a576200044a620003d2565b604051601f8301601f19908116603f01168101908282118183101715620004755762000475620003d2565b816040528381528660208588010111156200048f57600080fd5b620004a2846020830160208901620003e8565b9695505050505050565b600060608284031215620004bf57600080fd5b604051606081016001600160401b038082118383101715620004e557620004e5620003d2565b816040528293508451915080821115620004fe57600080fd5b6200050c868387016200041b565b83526020850151602084015260408501519150808211156200052d57600080fd5b506200053c858286016200041b565b6040830152505092915050565b600080600080600080600060e0888a0312156200056557600080fd5b87516001600160401b03808211156200057d57600080fd5b6200058b8b838c01620004ac565b985060208a0151915080821115620005a257600080fd5b620005b08b838c01620004ac565b975060408a0151915080821115620005c757600080fd5b620005d58b838c01620004ac565b965060608a0151915080821115620005ec57600080fd5b620005fa8b838c01620004ac565b955060808a01519150808211156200061157600080fd5b6200061f8b838c01620004ac565b945060a08a01519150808211156200063657600080fd5b620006448b838c01620004ac565b935060c08a01519150808211156200065b57600080fd5b506200066a8a828b01620004ac565b91505092959891949750929550565b600082516200068d818460208701620003e8565b9190910192915050565b600181811c90821680620006ac57607f821691505b60208210811415620006ce57634e487b7160e01b600052602260045260246000fd5b50919050565b61131880620006e46000396000f3fe608060405234801561001057600080fd5b506004361061007d5760003560e01c8063afd641db1161005b578063afd641db146100c4578063e17d35cf146100d7578063e5af4b0b146100ea578063e7b36f14146100fd57600080fd5b806301d12e4f14610082578063711ed7ac146100975780638b9c92aa146100aa575b600080fd5b610095610090366004610e48565b610105565b005b6100956100a5366004610eca565b610269565b6100b2610441565b60405190815260200160405180910390f35b6100956100d2366004610f48565b61047b565b6100956100e5366004610f61565b6105f3565b6100956100f836600461105a565b6106d7565b6100956108f8565b828282816003846040516101199190611145565b9081526020016040518091039020600101541461016e5760405162461bcd60e51b815260206004820152600e60248201526d77726f6e672076616c696469747960901b60448201526064015b60405180910390fd5b80805190602001206003846040516101869190611145565b90815260200160405180910390206002016040516101a491906111bb565b6040518091039020146101c95760405162461bcd60e51b815260040161016590611257565b6040805160608101825287815260208082018890528183018790523360009081526001909152918220548254919290918391908390811061020c5761020c61127f565b90600052602060002090600b02016002016000820151816000019080519060200190610239929190610ce2565b5060208281015160018301556040830151805161025c9260028501920190610ce2565b5050505050505050505050565b604080516101208101825233815260208082018a8152835160a0808201865260016060808401828152600360fc1b608080870182905291865260008689018190528a51808c018c52858152808a0192909252868b01919091529888019490945286018d90529185018b9052840189905260c0840188905260e08401879052851515610100850152845490810185559380528251600b9094027f290decd9548b62a8d60345a988386fc84ba6bc95484008f6362f93160ef3e563810180546001600160a01b03969096166001600160a01b03199096169590951785559051805193948594909361037c937f290decd9548b62a8d60345a988386fc84ba6bc95484008f6362f93160ef3e56401920190610ce2565b50604082015180518051600284019161039a91839160200190610ce2565b506020828101516001830155604083015180516103bd9260028501920190610ce2565b505050606082015160058201556080820151600682015560a0820151600782015560c0820151600882015560e0820151600982015561010090910151600a909101805460ff191691151591909117905560048054336000908152600160208190526040822083905592916104329084906112ab565b90915550505050505050505050565b33600090815260016020526040812054815482919081106104645761046461127f565b90600052602060002090600b020160070154905090565b336000908152600160205260408120548154811061049b5761049b61127f565b90600052602060002090600b020160070154600014156104f35760405162461bcd60e51b8152602060048201526013602482015272105b1b08199a5b995cc8185c99481c185e5959606a1b6044820152606401610165565b3360009081526001602052604081205481548392919081106105175761051761127f565b90600052602060002090600b020160070154101561059d5760405162461bcd60e51b815260206004820152603d60248201527f596f7520676f74206c6573732066696e65732c2075736520636865636b46696e60448201527f6573416d6f756e7420746f206b6e6f77206578616374206e756d6265720000006064820152608401610165565b73d9eaa853bbcccf5cb0a49241a7f69d743f3cf0496108fc6105c783678ac7230489e800006112c3565b6040518115909202916000818181858888f193505050501580156105ef573d6000803e3d6000fd5b5050565b825160208085019190912033600090815260019092526040822054825491929181106106215761062161127f565b90600052602060002090600b020160020160020160405161064291906111bb565b6040518091039020146106675760405162461bcd60e51b815260040161016590611257565b3360009081526002602090815260408083208151606081018352878152808401879052918201859052805460018101825590845292829020815180519294600302909101926106bb92849290910190610ce2565b5060208201518160010155604082015181600201555050505050565b6040808201518051602082015191830151925190929082906003906106fd908690611145565b9081526020016040518091039020600101541461074d5760405162461bcd60e51b815260206004820152600e60248201526d77726f6e672076616c696469747960901b6044820152606401610165565b80805190602001206003846040516107659190611145565b908152602001604051809103902060020160405161078391906111bb565b6040518091039020146107a85760405162461bcd60e51b815260040161016590611257565b6000805460018101825590805284517f290decd9548b62a8d60345a988386fc84ba6bc95484008f6362f93160ef3e563600b90920291820180546001600160a01b0319166001600160a01b0390921691909117815560208087015180518894610837937f290decd9548b62a8d60345a988386fc84ba6bc95484008f6362f93160ef3e564909101920190610ce2565b50604082015180518051600284019161085591839160200190610ce2565b506020828101516001830155604083015180516108789260028501920190610ce2565b505050606082015160058201556080820151600682015560a0820151600782015560c0820151600882015560e0820151600982015561010090910151600a909101805460ff191691151591909117905560048054336000908152600160208190526040822083905592916108ed9084906112ab565b909155505050505050565b336000908152600160205260408120548154829190811061091b5761091b61127f565b6000918252602091829020604080516101208101909152600b9092020180546001600160a01b03168252600181018054929391929184019161095c90611180565b80601f016020809104026020016040519081016040528092919081815260200182805461098890611180565b80156109d55780601f106109aa576101008083540402835291602001916109d5565b820191906000526020600020905b8154815290600101906020018083116109b857829003601f168201915b50505050508152602001600282016040518060600160405290816000820180546109fe90611180565b80601f0160208091040260200160405190810160405280929190818152602001828054610a2a90611180565b8015610a775780601f10610a4c57610100808354040283529160200191610a77565b820191906000526020600020905b815481529060010190602001808311610a5a57829003601f168201915b5050505050815260200160018201548152602001600282018054610a9a90611180565b80601f0160208091040260200160405190810160405280929190818152602001828054610ac690611180565b8015610b135780601f10610ae857610100808354040283529160200191610b13565b820191906000526020600020905b815481529060010190602001808311610af657829003601f168201915b50505091909252505050815260058201546020820152600682015460408201526007820154606082015260088201546080820152600982015460a0820152600a9091015460ff16151560c090910152905042610b728162278d006112ab565b8260400151602001511015610c465760405162461bcd60e51b815260206004820152608260248201527f596f75722064726976696e67206c6963656e636520617265206578706972696e60448201527f6720696e206c657373207468656e206d6f6e74682e20596f752063616e206e6f60648201527f742070726f6c6f6e67617465207468656d207468726f7567682074686973207060848201527f6f7274616c2e20506c6561736520766973697420706f6c69636520737461746960a48201526137b760f11b60c482015260e401610165565b60a082015115610c8e5760405162461bcd60e51b815260206004820152601360248201527250617920796f75722066696e6573206475646560681b6044820152606401610165565b3360009081526001602052604081205481546301e133809291908110610cb657610cb661127f565b90600052602060002090600b02016002016001016000828254610cd991906112ab565b90915550505050565b828054610cee90611180565b90600052602060002090601f016020900481019282610d105760008555610d56565b82601f10610d2957805160ff1916838001178555610d56565b82800160010185558215610d56579182015b82811115610d56578251825591602001919060010190610d3b565b50610d62929150610d66565b5090565b5b80821115610d625760008155600101610d67565b634e487b7160e01b600052604160045260246000fd5b604051610120810167ffffffffffffffff81118282101715610db557610db5610d7b565b60405290565b600082601f830112610dcc57600080fd5b813567ffffffffffffffff80821115610de757610de7610d7b565b604051601f8301601f19908116603f01168101908282118183101715610e0f57610e0f610d7b565b81604052838152866020858801011115610e2857600080fd5b836020870160208301376000602085830101528094505050505092915050565b600080600060608486031215610e5d57600080fd5b833567ffffffffffffffff80821115610e7557600080fd5b610e8187838801610dbb565b9450602086013593506040860135915080821115610e9e57600080fd5b50610eab86828701610dbb565b9150509250925092565b80358015158114610ec557600080fd5b919050565b600080600080600080600060e0888a031215610ee557600080fd5b873567ffffffffffffffff811115610efc57600080fd5b610f088a828b01610dbb565b9750506020880135955060408801359450606088013593506080880135925060a08801359150610f3a60c08901610eb5565b905092959891949750929550565b600060208284031215610f5a57600080fd5b5035919050565b600080600060608486031215610f7657600080fd5b833567ffffffffffffffff811115610f8d57600080fd5b610f9986828701610dbb565b9660208601359650604090950135949350505050565b80356001600160a01b0381168114610ec557600080fd5b600060608284031215610fd857600080fd5b6040516060810167ffffffffffffffff8282108183111715610ffc57610ffc610d7b565b81604052829350843591508082111561101457600080fd5b61102086838701610dbb565b835260208501356020840152604085013591508082111561104057600080fd5b5061104d85828601610dbb565b6040830152505092915050565b60006020828403121561106c57600080fd5b813567ffffffffffffffff8082111561108457600080fd5b90830190610120828603121561109957600080fd5b6110a1610d91565b6110aa83610faf565b81526020830135828111156110be57600080fd5b6110ca87828601610dbb565b6020830152506040830135828111156110e257600080fd5b6110ee87828601610fc6565b604083015250606083013560608201526080830135608082015260a083013560a082015260c083013560c082015260e083013560e08201526101009150611136828401610eb5565b91810191909152949350505050565b6000825160005b81811015611166576020818601810151858301520161114c565b81811115611175576000828501525b509190910192915050565b600181811c9082168061119457607f821691505b602082108114156111b557634e487b7160e01b600052602260045260246000fd5b50919050565b600080835481600182811c9150808316806111d757607f831692505b60208084108214156111f757634e487b7160e01b86526022600452602486fd5b81801561120b576001811461121c57611249565b60ff19861689528489019650611249565b60008a81526020902060005b868110156112415781548b820152908501908301611228565b505084890196505b509498975050505050505050565b6020808252600e908201526d77726f6e672063617465676f727960901b604082015260600190565b634e487b7160e01b600052603260045260246000fd5b634e487b7160e01b600052601160045260246000fd5b600082198211156112be576112be611295565b500190565b60008160001904831182151516156112dd576112dd611295565b50029056fea264697066735822122002757d4d4396620de9486e5d1ef1f4cb1312a63aa9be390f9c5e2825a081bee764736f6c634300080b0033",
    "sourcePath": "c:/Users/groma/Documents/blockchain/User.sol",
    "compiler": {
        "name": "solc",
        "version": "0.8.11+commit.d7f03943"
    },
    "functionHashes": {
        "checkFinesAmount()": "8b9c92aa",
        "createUser((address,string,(string,uint256,string),uint256,uint256,uint256,uint256,uint256,bool))": "e5af4b0b",
        "createUser(string,uint256,uint256,uint256,uint256,uint256,bool)": "711ed7ac",
        "dlProlongation()": "e7b36f14",
        "finePayment(uint256)": "afd641db",
        "registerCar(string,uint256,uint256)": "e17d35cf",
        "setDrivingLicence(string,uint256,string)": "01d12e4f"
    },
    "gasEstimates": {
        "creation": {
            "codeDepositCost": "977600",
            "executionCost": "infinite",
            "totalCost": "infinite"
        },
        "external": {
            "checkFinesAmount()": "6716",
            "createUser((address,string,(string,uint256,string),uint256,uint256,uint256,uint256,uint256,bool))": "infinite",
            "createUser(string,uint256,uint256,uint256,uint256,uint256,bool)": "infinite",
            "dlProlongation()": "infinite",
            "finePayment(uint256)": "infinite",
            "registerCar(string,uint256,uint256)": "infinite",
            "setDrivingLicence(string,uint256,string)": "infinite"
        }
    }
}