{
    "contractName": "User",
    "abi": [
        {
            "inputs": [
                {
                    "components": [
                        {
                            "internalType": "string",
                            "name": "number",
                            "type": "string"
                        },
                        {
                            "internalType": "uint256",
                            "name": "validity",
                            "type": "uint256"
                        },
                        {
                            "internalType": "string",
                            "name": "category",
                            "type": "string"
                        }
                    ],
                    "internalType": "struct User.DrivingLicence",
                    "name": "_dl0",
                    "type": "tuple"
                },
                {
                    "components": [
                        {
                            "internalType": "string",
                            "name": "number",
                            "type": "string"
                        },
                        {
                            "internalType": "uint256",
                            "name": "validity",
                            "type": "uint256"
                        },
                        {
                            "internalType": "string",
                            "name": "category",
                            "type": "string"
                        }
                    ],
                    "internalType": "struct User.DrivingLicence",
                    "name": "_dl1",
                    "type": "tuple"
                },
                {
                    "components": [
                        {
                            "internalType": "string",
                            "name": "number",
                            "type": "string"
                        },
                        {
                            "internalType": "uint256",
                            "name": "validity",
                            "type": "uint256"
                        },
                        {
                            "internalType": "string",
                            "name": "category",
                            "type": "string"
                        }
                    ],
                    "internalType": "struct User.DrivingLicence",
                    "name": "_dl2",
                    "type": "tuple"
                },
                {
                    "components": [
                        {
                            "internalType": "string",
                            "name": "number",
                            "type": "string"
                        },
                        {
                            "internalType": "uint256",
                            "name": "validity",
                            "type": "uint256"
                        },
                        {
                            "internalType": "string",
                            "name": "category",
                            "type": "string"
                        }
                    ],
                    "internalType": "struct User.DrivingLicence",
                    "name": "_dl3",
                    "type": "tuple"
                },
                {
                    "components": [
                        {
                            "internalType": "string",
                            "name": "number",
                            "type": "string"
                        },
                        {
                            "internalType": "uint256",
                            "name": "validity",
                            "type": "uint256"
                        },
                        {
                            "internalType": "string",
                            "name": "category",
                            "type": "string"
                        }
                    ],
                    "internalType": "struct User.DrivingLicence",
                    "name": "_dl4",
                    "type": "tuple"
                },
                {
                    "components": [
                        {
                            "internalType": "string",
                            "name": "number",
                            "type": "string"
                        },
                        {
                            "internalType": "uint256",
                            "name": "validity",
                            "type": "uint256"
                        },
                        {
                            "internalType": "string",
                            "name": "category",
                            "type": "string"
                        }
                    ],
                    "internalType": "struct User.DrivingLicence",
                    "name": "_dl5",
                    "type": "tuple"
                },
                {
                    "components": [
                        {
                            "internalType": "string",
                            "name": "number",
                            "type": "string"
                        },
                        {
                            "internalType": "uint256",
                            "name": "validity",
                            "type": "uint256"
                        },
                        {
                            "internalType": "string",
                            "name": "category",
                            "type": "string"
                        }
                    ],
                    "internalType": "struct User.DrivingLicence",
                    "name": "_dl6",
                    "type": "tuple"
                },
                {
                    "internalType": "address",
                    "name": "_admin",
                    "type": "address"
                },
                {
                    "internalType": "address",
                    "name": "_addrContr",
                    "type": "address"
                }
            ],
            "stateMutability": "nonpayable",
            "type": "constructor"
        },
        {
            "inputs": [],
            "name": "checkFinesAmount",
            "outputs": [
                {
                    "internalType": "uint256",
                    "name": "",
                    "type": "uint256"
                }
            ],
            "stateMutability": "view",
            "type": "function"
        },
        {
            "inputs": [
                {
                    "internalType": "address",
                    "name": "_toPay",
                    "type": "address"
                }
            ],
            "name": "createAccident",
            "outputs": [],
            "stateMutability": "nonpayable",
            "type": "function"
        },
        {
            "inputs": [
                {
                    "internalType": "address",
                    "name": "_toBeFined",
                    "type": "address"
                }
            ],
            "name": "createFine",
            "outputs": [],
            "stateMutability": "nonpayable",
            "type": "function"
        },
        {
            "inputs": [
                {
                    "internalType": "string",
                    "name": "_FIO",
                    "type": "string"
                },
                {
                    "internalType": "uint256",
                    "name": "_startDrive",
                    "type": "uint256"
                }
            ],
            "name": "createUser",
            "outputs": [],
            "stateMutability": "nonpayable",
            "type": "function"
        },
        {
            "inputs": [
                {
                    "components": [
                        {
                            "internalType": "address",
                            "name": "userAddr",
                            "type": "address"
                        },
                        {
                            "internalType": "string",
                            "name": "FIO",
                            "type": "string"
                        },
                        {
                            "components": [
                                {
                                    "internalType": "string",
                                    "name": "number",
                                    "type": "string"
                                },
                                {
                                    "internalType": "uint256",
                                    "name": "validity",
                                    "type": "uint256"
                                },
                                {
                                    "internalType": "string",
                                    "name": "category",
                                    "type": "string"
                                }
                            ],
                            "internalType": "struct User.DrivingLicence",
                            "name": "dl",
                            "type": "tuple"
                        },
                        {
                            "internalType": "uint256",
                            "name": "startDrive",
                            "type": "uint256"
                        },
                        {
                            "internalType": "uint256",
                            "name": "accidentAmount",
                            "type": "uint256"
                        },
                        {
                            "internalType": "uint256[]",
                            "name": "notPayedFines",
                            "type": "uint256[]"
                        },
                        {
                            "internalType": "uint256",
                            "name": "insuranceFee",
                            "type": "uint256"
                        },
                        {
                            "internalType": "uint256",
                            "name": "balance",
                            "type": "uint256"
                        },
                        {
                            "internalType": "bool",
                            "name": "isDPS",
                            "type": "bool"
                        }
                    ],
                    "internalType": "struct User.User_str",
                    "name": "_user",
                    "type": "tuple"
                }
            ],
            "name": "createUser",
            "outputs": [],
            "stateMutability": "nonpayable",
            "type": "function"
        },
        {
            "inputs": [],
            "name": "dlProlongation",
            "outputs": [],
            "stateMutability": "nonpayable",
            "type": "function"
        },
        {
            "inputs": [
                {
                    "internalType": "uint256",
                    "name": "_finesToPay",
                    "type": "uint256"
                }
            ],
            "name": "finePayment",
            "outputs": [],
            "stateMutability": "payable",
            "type": "function"
        },
        {
            "inputs": [],
            "name": "formInsPrice",
            "outputs": [
                {
                    "internalType": "uint256",
                    "name": "",
                    "type": "uint256"
                }
            ],
            "stateMutability": "nonpayable",
            "type": "function"
        },
        {
            "inputs": [
                {
                    "internalType": "uint256",
                    "name": "_amount",
                    "type": "uint256"
                }
            ],
            "name": "moneyBack",
            "outputs": [],
            "stateMutability": "nonpayable",
            "type": "function"
        },
        {
            "inputs": [],
            "name": "payForIns",
            "outputs": [],
            "stateMutability": "nonpayable",
            "type": "function"
        },
        {
            "inputs": [],
            "name": "popolnitbalans",
            "outputs": [],
            "stateMutability": "payable",
            "type": "function"
        },
        {
            "inputs": [
                {
                    "internalType": "string",
                    "name": "_carCategory",
                    "type": "string"
                },
                {
                    "internalType": "uint256",
                    "name": "_price",
                    "type": "uint256"
                },
                {
                    "internalType": "uint256",
                    "name": "_age",
                    "type": "uint256"
                }
            ],
            "name": "registerCar",
            "outputs": [],
            "stateMutability": "nonpayable",
            "type": "function"
        },
        {
            "inputs": [
                {
                    "internalType": "string",
                    "name": "_number",
                    "type": "string"
                },
                {
                    "internalType": "uint256",
                    "name": "_validity",
                    "type": "uint256"
                },
                {
                    "internalType": "string",
                    "name": "_category",
                    "type": "string"
                }
            ],
            "name": "setDrivingLicence",
            "outputs": [],
            "stateMutability": "nonpayable",
            "type": "function"
        }
    ],
    "bytecode": "608060405260006005553480156200001657600080fd5b5060405162002c6838038062002c68833981016040819052620000399162000616565b8860038a600001516040516200005091906200076c565b908152602001604051809103902060008201518160000190805190602001906200007c929190620003dc565b50602082810151600183015560408301518051620000a19260028501920190620003dc565b505088516040518a9250600391620000b9916200076c565b90815260200160405180910390206000820151816000019080519060200190620000e5929190620003dc565b506020828101516001830155604083015180516200010a9260028501920190620003dc565b5050875160405189925060039162000122916200076c565b908152602001604051809103902060008201518160000190805190602001906200014e929190620003dc565b50602082810151600183015560408301518051620001739260028501920190620003dc565b505086516040518892506003916200018b916200076c565b90815260200160405180910390206000820151816000019080519060200190620001b7929190620003dc565b50602082810151600183015560408301518051620001dc9260028501920190620003dc565b50508551604051879250600391620001f4916200076c565b9081526020016040518091039020600082015181600001908051906020019062000220929190620003dc565b50602082810151600183015560408301518051620002459260028501920190620003dc565b505084516040518692506003916200025d916200076c565b9081526020016040518091039020600082015181600001908051906020019062000289929190620003dc565b50602082810151600183015560408301518051620002ae9260028501920190620003dc565b50508351604051859250600391620002c6916200076c565b90815260200160405180910390206000820151816000019080519060200190620002f2929190620003dc565b50602082810151600183015560408301518051620003179260028501920190620003dc565b50504260065550600780546001600160a01b038085166001600160a01b031992831617909255600a805492841692909116821790556040516349d6af3360e11b81526393ad5e6690620003999030906004016001600160a01b03919091168152604060208201819052600490820152633ab9b2b960e11b606082015260800190565b600060405180830381600087803b158015620003b457600080fd5b505af1158015620003c9573d6000803e3d6000fd5b50505050505050505050505050620007c7565b828054620003ea906200078a565b90600052602060002090601f0160209004810192826200040e576000855562000459565b82601f106200042957805160ff191683800117855562000459565b8280016001018555821562000459579182015b82811115620004595782518255916020019190600101906200043c565b50620004679291506200046b565b5090565b5b808211156200046757600081556001016200046c565b634e487b7160e01b600052604160045260246000fd5b60005b83811015620004b55781810151838201526020016200049b565b83811115620004c5576000848401525b50505050565b600082601f830112620004dd57600080fd5b81516001600160401b0380821115620004fa57620004fa62000482565b604051601f8301601f19908116603f0116810190828211818310171562000525576200052562000482565b816040528381528660208588010111156200053f57600080fd5b6200055284602083016020890162000498565b9695505050505050565b6000606082840312156200056f57600080fd5b604051606081016001600160401b03808211838310171562000595576200059562000482565b816040528293508451915080821115620005ae57600080fd5b620005bc86838701620004cb565b8352602085015160208401526040850151915080821115620005dd57600080fd5b50620005ec85828601620004cb565b6040830152505092915050565b80516001600160a01b03811681146200061157600080fd5b919050565b60008060008060008060008060006101208a8c0312156200063657600080fd5b89516001600160401b03808211156200064e57600080fd5b6200065c8d838e016200055c565b9a5060208c01519150808211156200067357600080fd5b620006818d838e016200055c565b995060408c01519150808211156200069857600080fd5b620006a68d838e016200055c565b985060608c0151915080821115620006bd57600080fd5b620006cb8d838e016200055c565b975060808c0151915080821115620006e257600080fd5b620006f08d838e016200055c565b965060a08c01519150808211156200070757600080fd5b620007158d838e016200055c565b955060c08c01519150808211156200072c57600080fd5b506200073b8c828d016200055c565b9350506200074c60e08b01620005f9565b91506200075d6101008b01620005f9565b90509295985092959850929598565b600082516200078081846020870162000498565b9190910192915050565b600181811c908216806200079f57607f821691505b60208210811415620007c157634e487b7160e01b600052602260045260246000fd5b50919050565b61249180620007d76000396000f3fe6080604052600436106100c25760003560e01c806393f6b6321161007f578063bbabd84111610059578063bbabd841146101c5578063bddff58e146101e5578063e17d35cf14610205578063e7b36f141461022557600080fd5b806393f6b6321461017d578063afd641db1461019d578063b23dc49e146101b057600080fd5b806301d12e4f146100c7578063121ef243146100e957806313feb7b3146101095780633ebbcecb1461013057806371c813e2146101385780638b9c92aa14610158575b600080fd5b3480156100d357600080fd5b506100e76100e2366004611e90565b61023a565b005b3480156100f557600080fd5b506100e7610104366004611efd565b610371565b34801561011557600080fd5b5061011e610523565b60405190815260200160405180910390f35b6100e7610a14565b34801561014457600080fd5b506100e7610153366004611f42565b610a3d565b34801561016457600080fd5b503360009081526001602052604090206007015461011e565b34801561018957600080fd5b506100e76101983660046120a7565b610af0565b6100e76101ab366004611f42565b610c5e565b3480156101bc57600080fd5b506100e7610efc565b3480156101d157600080fd5b506100e76101e03660046121ac565b611081565b3480156101f157600080fd5b506100e76102003660046121ac565b61152d565b34801561021157600080fd5b506100e76102203660046121d0565b61183a565b34801561023157600080fd5b506100e76118f9565b8282828160038460405161024e919061221e565b908152602001604051809103902060010154146102a35760405162461bcd60e51b815260206004820152600e60248201526d77726f6e672076616c696469747960901b60448201526064015b60405180910390fd5b80805190602001206003846040516102bb919061221e565b90815260200160405180910390206002016040516102d99190612294565b6040518091039020146102fe5760405162461bcd60e51b815260040161029a90612330565b604080516060810182528781526020808201889052818301879052336000908152600182529290922081518051929384936002909301926103429284920190611cdc565b506020828101516001830155604083015180516103659260028501920190611cdc565b50505050505050505050565b60408051610120810182523381526020808201858152835160a0808201865260016060838101828152600360fc1b608080870182905291865260008689018190528a51808c018c52858152808a0192909252868b0191909152888a01959095528782018a9052870184905291860182905260c0860183905260e0860183905261010086018390528551835480830185558480527f290decd9548b62a8d60345a988386fc84ba6bc95484008f6362f93160ef3e5630180546001600160a01b039283166001600160a01b03199182161790915587518216855282875297909320865181549416939097169290921786559151805192958594909361047a9385019290910190611cdc565b50604082015180518051600284019161049891839160200190611cdc565b506020828101516001830155604083015180516104bb9260028501920190611cdc565b505050606082015160058201556080820151600682015560a082015180516104ed916007840191602090910190611d60565b5060c0820151600882015560e0820151600982015561010090910151600a909101805460ff191691151591909117905550505050565b600a546040805163259a6ac160e01b815290516000926001600160a01b03169163259a6ac19160048083019260209291908290030181865afa15801561056d573d6000803e3d6000fd5b505050506040513d601f19601f820116820180604052508101906105919190612358565b600980546001600160a01b03929092166001600160a01b0319928316811790915560048054909216179055336000908152600260205260409020600101546105d857600080fd5b3360009081526001602081815260408084208151610120810190925280546001600160a01b03168252928301805491939284019161061590612259565b80601f016020809104026020016040519081016040528092919081815260200182805461064190612259565b801561068e5780601f106106635761010080835404028352916020019161068e565b820191906000526020600020905b81548152906001019060200180831161067157829003601f168201915b50505050508152602001600282016040518060600160405290816000820180546106b790612259565b80601f01602080910402602001604051908101604052809291908181526020018280546106e390612259565b80156107305780601f1061070557610100808354040283529160200191610730565b820191906000526020600020905b81548152906001019060200180831161071357829003601f168201915b505050505081526020016001820154815260200160028201805461075390612259565b80601f016020809104026020016040519081016040528092919081815260200182805461077f90612259565b80156107cc5780601f106107a1576101008083540402835291602001916107cc565b820191906000526020600020905b8154815290600101906020018083116107af57829003601f168201915b505050505081525050815260200160058201548152602001600682015481526020016007820180548060200260200160405190810160405280929190818152602001828054801561083c57602002820191906000526020600020905b815481526020019060010190808311610828575b505050918352505060088201546020808301919091526009830154604080840191909152600a9093015460ff161515606092830152336000908152600290915282812083519283019093528254939450929091908290829061089d90612259565b80601f01602080910402602001604051908101604052809291908181526020018280546108c990612259565b80156109165780601f106108eb57610100808354040283529160200191610916565b820191906000526020600020905b8154815290600101906020018083116108f957829003601f168201915b5050505050815260200160018201548152602001600282015481525050905060006301e1338083606001514261094c919061238b565b61095691906123a2565b60048054602085015160408087015160a08901515160808a015192516310a76ea560e31b815295860193909352602485015260448401919091526064830152608482018390529192506000916001600160a01b03169063853b75289060a401602060405180830381865afa1580156109d2573d6000803e3d6000fd5b505050506040513d601f19601f820116820180604052508101906109f691906123c4565b33600090815260016020526040902060080181905595945050505050565b3360009081526001602052604081206009018054349290610a369084906123dd565b9091555050565b3331811115610a985760405162461bcd60e51b815260206004820152602160248201527f6e6f7420656e6f756768206d6f6e6579206f6e20796f75722062616c616e61636044820152606560f81b606482015260840161029a565b604051339082156108fc029083906000818181858888f19350505050158015610ac5573d6000803e3d6000fd5b503360009081526001602052604081206009018054839290610ae890849061238b565b909155505050565b604080820151805160208201519183015192519092908290600390610b1690869061221e565b90815260200160405180910390206001015414610b665760405162461bcd60e51b815260206004820152600e60248201526d77726f6e672076616c696469747960901b604482015260640161029a565b8080519060200120600384604051610b7e919061221e565b9081526020016040518091039020600201604051610b9c9190612294565b604051809103902014610bc15760405162461bcd60e51b815260040161029a90612330565b6007546001600160a01b03163314610bd857600080fd5b835160008054600180820183558280527f290decd9548b62a8d60345a988386fc84ba6bc95484008f6362f93160ef3e56390910180546001600160a01b03199081166001600160a01b039586161790915587518416835260208281526040909320885181549092169190941617835581870151805188949361047a938501920190611cdc565b33600090815260016020908152604080832060070180548251818502810185019093528083529192909190830182828015610cb857602002820191906000526020600020905b815481526020019060010190808311610ca4575b5050835193945050508115159050610d085760405162461bcd60e51b8152602060048201526013602482015272105b1b08199a5b995cc8185c99481c185e5959606a1b604482015260640161029a565b82811015610d7e5760405162461bcd60e51b815260206004820152603d60248201527f596f7520676f74206c6573732066696e65732c2075736520636865636b46696e60448201527f6573416d6f756e7420746f206b6e6f77206578616374206e756d626572000000606482015260840161029a565b60005b83811015610ef657428382610d9760018661238b565b610da1919061238b565b81518110610db157610db16123f5565b60200260200101516019610dc591906123dd565b1115610e3e576008546040516001600160a01b0390911690600090674563918244f400009082818181858883f19350505050158015610e08573d6000803e3d6000fd5b503360009081526001602052604081206009018054674563918244f400009290610e3390849061238b565b90915550610eac9050565b6008546040516001600160a01b0390911690600090678ac7230489e800009082818181858883f19350505050158015610e7b573d6000803e3d6000fd5b503360009081526001602052604081206009018054678ac7230489e800009290610ea690849061238b565b90915550505b336000908152600160205260409020600701805480610ecd57610ecd61240b565b600190038181906000526020600020016000905590558080610eee90612421565b915050610d81565b50505050565b6000610f06610523565b9050600a60009054906101000a90046001600160a01b03166001600160a01b031663259a6ac16040518163ffffffff1660e01b8152600401602060405180830381865afa158015610f5b573d6000803e3d6000fd5b505050506040513d601f19601f82011682018060405250810190610f7f9190612358565b600980546001600160a01b03929092166001600160a01b03199283168117825560048054909316179091553360009081526001602052604090200154811115610fc757600080fd5b6004546040516001600160a01b039091169082156108fc029083906000818181858888f19350505050158015611001573d6000803e3d6000fd5b50600480546040516334d7648960e11b81529182018390526001600160a01b0316906369aec91290602401600060405180830381600087803b15801561104657600080fd5b505af115801561105a573d6000803e3d6000fd5b50503360009081526001602052604081206009018054859450909250610ae890849061238b565b3360008181526001602081815260408084208151610120810190925280546001600160a01b0316825292830180549193928401916110be90612259565b80601f01602080910402602001604051908101604052809291908181526020018280546110ea90612259565b80156111375780601f1061110c57610100808354040283529160200191611137565b820191906000526020600020905b81548152906001019060200180831161111a57829003601f168201915b505050505081526020016002820160405180606001604052908160008201805461116090612259565b80601f016020809104026020016040519081016040528092919081815260200182805461118c90612259565b80156111d95780601f106111ae576101008083540402835291602001916111d9565b820191906000526020600020905b8154815290600101906020018083116111bc57829003601f168201915b50505050508152602001600182015481526020016002820180546111fc90612259565b80601f016020809104026020016040519081016040528092919081815260200182805461122890612259565b80156112755780601f1061124a57610100808354040283529160200191611275565b820191906000526020600020905b81548152906001019060200180831161125857829003601f168201915b50505050508152505081526020016005820154815260200160068201548152602001600782018054806020026020016040519081016040528092919081815260200182805480156112e557602002820191906000526020600020905b8154815260200190600101908083116112d1575b50505091835250506008820154602082015260098201546040820152600a9091015460ff161515606090910152610100810151909150151560011461135e5760405162461bcd60e51b815260206004820152600f60248201526e596f7520617265206e6f742044505360881b604482015260640161029a565b600a60009054906101000a90046001600160a01b03166001600160a01b031663259a6ac16040518163ffffffff1660e01b8152600401602060405180830381865afa1580156113b1573d6000803e3d6000fd5b505050506040513d601f19601f820116820180604052508101906113d59190612358565b600980546001600160a01b039283166001600160a01b0319918216811790925560048054909116909117905583166000908152600160205260409020600801546114615760405162461bcd60e51b815260206004820152601d60248201527f596f7520646964206e6f742070617920666f7220696e637572616e6365000000604482015260640161029a565b600480546001600160a01b038581166000908152600160205260409081902060080154905163a3c4581360e01b815293840152169063a3c4581390602401600060405180830381600087803b1580156114b957600080fd5b505af11580156114cd573d6000803e3d6000fd5b5050506001600160a01b0384166000908152600160205260409020600801546114f89150600a61243c565b6001600160a01b038416600090815260016020526040812060090180549091906115239084906123dd565b9091555050505050565b3360008181526001602081815260408084208151610120810190925280546001600160a01b03168252928301805491939284019161156a90612259565b80601f016020809104026020016040519081016040528092919081815260200182805461159690612259565b80156115e35780601f106115b8576101008083540402835291602001916115e3565b820191906000526020600020905b8154815290600101906020018083116115c657829003601f168201915b505050505081526020016002820160405180606001604052908160008201805461160c90612259565b80601f016020809104026020016040519081016040528092919081815260200182805461163890612259565b80156116855780601f1061165a57610100808354040283529160200191611685565b820191906000526020600020905b81548152906001019060200180831161166857829003601f168201915b50505050508152602001600182015481526020016002820180546116a890612259565b80601f01602080910402602001604051908101604052809291908181526020018280546116d490612259565b80156117215780601f106116f657610100808354040283529160200191611721565b820191906000526020600020905b81548152906001019060200180831161170457829003601f168201915b505050505081525050815260200160058201548152602001600682015481526020016007820180548060200260200160405190810160405280929190818152602001828054801561179157602002820191906000526020600020905b81548152602001906001019080831161177d575b50505091835250506008820154602082015260098201546040820152600a9091015460ff161515606090910152610100810151909150151560011461180a5760405162461bcd60e51b815260206004820152600f60248201526e596f7520617265206e6f742044505360881b604482015260640161029a565b50506001600160a01b03166000908152600160208181526040832060070180549283018155835290912042910155565b828051906020012060016000336001600160a01b03166001600160a01b0316815260200190815260200160002060020160020160405161187a9190612294565b60405180910390201461189f5760405162461bcd60e51b815260040161029a90612330565b604080516060810182528481526020808201859052818301849052336000908152600282529290922081518051929391926118dd9284920190611cdc565b5060208201516001820155604090910151600290910155505050565b3360009081526001602081815260408084208151610120810190925280546001600160a01b03168252928301805491939284019161193690612259565b80601f016020809104026020016040519081016040528092919081815260200182805461196290612259565b80156119af5780601f10611984576101008083540402835291602001916119af565b820191906000526020600020905b81548152906001019060200180831161199257829003601f168201915b50505050508152602001600282016040518060600160405290816000820180546119d890612259565b80601f0160208091040260200160405190810160405280929190818152602001828054611a0490612259565b8015611a515780601f10611a2657610100808354040283529160200191611a51565b820191906000526020600020905b815481529060010190602001808311611a3457829003601f168201915b5050505050815260200160018201548152602001600282018054611a7490612259565b80601f0160208091040260200160405190810160405280929190818152602001828054611aa090612259565b8015611aed5780601f10611ac257610100808354040283529160200191611aed565b820191906000526020600020905b815481529060010190602001808311611ad057829003601f168201915b5050505050815250508152602001600582015481526020016006820154815260200160078201805480602002602001604051908101604052809291908181526020018280548015611b5d57602002820191906000526020600020905b815481526020019060010190808311611b49575b50505091835250506008820154602082015260098201546040820152600a9091015460ff1615156060909101529050611b994262278d006123dd565b8160400151602001511015611c6d5760405162461bcd60e51b815260206004820152608260248201527f596f75722064726976696e67206c6963656e636520617265206578706972696e60448201527f6720696e206c657373207468656e206d6f6e74682e20596f752063616e206e6f60648201527f742070726f6c6f6e67617465207468656d207468726f7567682074686973207060848201527f6f7274616c2e20506c6561736520766973697420706f6c69636520737461746960a48201526137b760f11b60c482015260e40161029a565b60a08101515115611cb65760405162461bcd60e51b815260206004820152601360248201527250617920796f75722066696e6573206475646560681b604482015260640161029a565b33600090815260016020526040812060030180546301e133809290610ae89084906123dd565b828054611ce890612259565b90600052602060002090601f016020900481019282611d0a5760008555611d50565b82601f10611d2357805160ff1916838001178555611d50565b82800160010185558215611d50579182015b82811115611d50578251825591602001919060010190611d35565b50611d5c929150611d9a565b5090565b828054828255906000526020600020908101928215611d505791602002820182811115611d50578251825591602001919060010190611d35565b5b80821115611d5c5760008155600101611d9b565b634e487b7160e01b600052604160045260246000fd5b604051610120810167ffffffffffffffff81118282101715611de957611de9611daf565b60405290565b604051601f8201601f1916810167ffffffffffffffff81118282101715611e1857611e18611daf565b604052919050565b600082601f830112611e3157600080fd5b813567ffffffffffffffff811115611e4b57611e4b611daf565b611e5e601f8201601f1916602001611def565b818152846020838601011115611e7357600080fd5b816020850160208301376000918101602001919091529392505050565b600080600060608486031215611ea557600080fd5b833567ffffffffffffffff80821115611ebd57600080fd5b611ec987838801611e20565b9450602086013593506040860135915080821115611ee657600080fd5b50611ef386828701611e20565b9150509250925092565b60008060408385031215611f1057600080fd5b823567ffffffffffffffff811115611f2757600080fd5b611f3385828601611e20565b95602094909401359450505050565b600060208284031215611f5457600080fd5b5035919050565b6001600160a01b0381168114611f7057600080fd5b50565b8035611f7e81611f5b565b919050565b600060608284031215611f9557600080fd5b6040516060810167ffffffffffffffff8282108183111715611fb957611fb9611daf565b816040528293508435915080821115611fd157600080fd5b611fdd86838701611e20565b8352602085013560208401526040850135915080821115611ffd57600080fd5b5061200a85828601611e20565b6040830152505092915050565b600082601f83011261202857600080fd5b8135602067ffffffffffffffff82111561204457612044611daf565b8160051b612053828201611def565b928352848101820192828101908785111561206d57600080fd5b83870192505b8483101561208c57823582529183019190830190612073565b979650505050505050565b80358015158114611f7e57600080fd5b6000602082840312156120b957600080fd5b813567ffffffffffffffff808211156120d157600080fd5b9083019061012082860312156120e657600080fd5b6120ee611dc5565b6120f783611f73565b815260208301358281111561210b57600080fd5b61211787828601611e20565b60208301525060408301358281111561212f57600080fd5b61213b87828601611f83565b604083015250606083013560608201526080830135608082015260a08301358281111561216757600080fd5b61217387828601612017565b60a08301525060c083013560c082015260e083013560e0820152610100915061219d828401612097565b91810191909152949350505050565b6000602082840312156121be57600080fd5b81356121c981611f5b565b9392505050565b6000806000606084860312156121e557600080fd5b833567ffffffffffffffff8111156121fc57600080fd5b61220886828701611e20565b9660208601359650604090950135949350505050565b6000825160005b8181101561223f5760208186018101518583015201612225565b8181111561224e576000828501525b509190910192915050565b600181811c9082168061226d57607f821691505b6020821081141561228e57634e487b7160e01b600052602260045260246000fd5b50919050565b600080835481600182811c9150808316806122b057607f831692505b60208084108214156122d057634e487b7160e01b86526022600452602486fd5b8180156122e457600181146122f557612322565b60ff19861689528489019650612322565b60008a81526020902060005b8681101561231a5781548b820152908501908301612301565b505084890196505b509498975050505050505050565b6020808252600e908201526d77726f6e672063617465676f727960901b604082015260600190565b60006020828403121561236a57600080fd5b81516121c981611f5b565b634e487b7160e01b600052601160045260246000fd5b60008282101561239d5761239d612375565b500390565b6000826123bf57634e487b7160e01b600052601260045260246000fd5b500490565b6000602082840312156123d657600080fd5b5051919050565b600082198211156123f0576123f0612375565b500190565b634e487b7160e01b600052603260045260246000fd5b634e487b7160e01b600052603160045260246000fd5b600060001982141561243557612435612375565b5060010190565b600081600019048311821515161561245657612456612375565b50029056fea2646970667358221220f0e4abb01a88f76498f0efac27475ac005eefe914ca44219e006fe577e92493664736f6c634300080b0033",
    "sourcePath": "c:/Users/groma/Documents/WorldSkillsPreparations/User.sol",
    "compiler": {
        "name": "solc",
        "version": "0.8.11+commit.d7f03943"
    },
    "functionHashes": {
        "checkFinesAmount()": "8b9c92aa",
        "createAccident(address)": "bbabd841",
        "createFine(address)": "bddff58e",
        "createUser((address,string,(string,uint256,string),uint256,uint256,uint256[],uint256,uint256,bool))": "93f6b632",
        "createUser(string,uint256)": "121ef243",
        "dlProlongation()": "e7b36f14",
        "finePayment(uint256)": "afd641db",
        "formInsPrice()": "13feb7b3",
        "moneyBack(uint256)": "71c813e2",
        "payForIns()": "b23dc49e",
        "popolnitbalans()": "3ebbcecb",
        "registerCar(string,uint256,uint256)": "e17d35cf",
        "setDrivingLicence(string,uint256,string)": "01d12e4f"
    },
    "gasEstimates": {
        "creation": {
            "codeDepositCost": "1872200",
            "executionCost": "infinite",
            "totalCost": "infinite"
        },
        "external": {
            "checkFinesAmount()": "2465",
            "createAccident(address)": "infinite",
            "createFine(address)": "infinite",
            "createUser((address,string,(string,uint256,string),uint256,uint256,uint256[],uint256,uint256,bool))": "infinite",
            "createUser(string,uint256)": "infinite",
            "dlProlongation()": "infinite",
            "finePayment(uint256)": "infinite",
            "formInsPrice()": "infinite",
            "moneyBack(uint256)": "infinite",
            "payForIns()": "infinite",
            "popolnitbalans()": "24558",
            "registerCar(string,uint256,uint256)": "infinite",
            "setDrivingLicence(string,uint256,string)": "infinite"
        }
    }
}