{
    "contractName": "User",
    "abi": [
        {
            "inputs": [
                {
                    "components": [
                        {
                            "internalType": "string",
                            "name": "number",
                            "type": "string"
                        },
                        {
                            "internalType": "uint256",
                            "name": "validity",
                            "type": "uint256"
                        },
                        {
                            "internalType": "string",
                            "name": "category",
                            "type": "string"
                        }
                    ],
                    "internalType": "struct User.DrivingLicence",
                    "name": "_dl0",
                    "type": "tuple"
                },
                {
                    "components": [
                        {
                            "internalType": "string",
                            "name": "number",
                            "type": "string"
                        },
                        {
                            "internalType": "uint256",
                            "name": "validity",
                            "type": "uint256"
                        },
                        {
                            "internalType": "string",
                            "name": "category",
                            "type": "string"
                        }
                    ],
                    "internalType": "struct User.DrivingLicence",
                    "name": "_dl1",
                    "type": "tuple"
                },
                {
                    "components": [
                        {
                            "internalType": "string",
                            "name": "number",
                            "type": "string"
                        },
                        {
                            "internalType": "uint256",
                            "name": "validity",
                            "type": "uint256"
                        },
                        {
                            "internalType": "string",
                            "name": "category",
                            "type": "string"
                        }
                    ],
                    "internalType": "struct User.DrivingLicence",
                    "name": "_dl2",
                    "type": "tuple"
                },
                {
                    "components": [
                        {
                            "internalType": "string",
                            "name": "number",
                            "type": "string"
                        },
                        {
                            "internalType": "uint256",
                            "name": "validity",
                            "type": "uint256"
                        },
                        {
                            "internalType": "string",
                            "name": "category",
                            "type": "string"
                        }
                    ],
                    "internalType": "struct User.DrivingLicence",
                    "name": "_dl3",
                    "type": "tuple"
                },
                {
                    "components": [
                        {
                            "internalType": "string",
                            "name": "number",
                            "type": "string"
                        },
                        {
                            "internalType": "uint256",
                            "name": "validity",
                            "type": "uint256"
                        },
                        {
                            "internalType": "string",
                            "name": "category",
                            "type": "string"
                        }
                    ],
                    "internalType": "struct User.DrivingLicence",
                    "name": "_dl4",
                    "type": "tuple"
                },
                {
                    "components": [
                        {
                            "internalType": "string",
                            "name": "number",
                            "type": "string"
                        },
                        {
                            "internalType": "uint256",
                            "name": "validity",
                            "type": "uint256"
                        },
                        {
                            "internalType": "string",
                            "name": "category",
                            "type": "string"
                        }
                    ],
                    "internalType": "struct User.DrivingLicence",
                    "name": "_dl5",
                    "type": "tuple"
                },
                {
                    "components": [
                        {
                            "internalType": "string",
                            "name": "number",
                            "type": "string"
                        },
                        {
                            "internalType": "uint256",
                            "name": "validity",
                            "type": "uint256"
                        },
                        {
                            "internalType": "string",
                            "name": "category",
                            "type": "string"
                        }
                    ],
                    "internalType": "struct User.DrivingLicence",
                    "name": "_dl6",
                    "type": "tuple"
                }
            ],
            "stateMutability": "nonpayable",
            "type": "constructor"
        },
        {
            "inputs": [],
            "name": "checkFinesAmount",
            "outputs": [
                {
                    "internalType": "uint256",
                    "name": "",
                    "type": "uint256"
                }
            ],
            "stateMutability": "view",
            "type": "function"
        },
        {
            "inputs": [
                {
                    "internalType": "address",
                    "name": "_toPay",
                    "type": "address"
                }
            ],
            "name": "createAccident",
            "outputs": [],
            "stateMutability": "nonpayable",
            "type": "function"
        },
        {
            "inputs": [
                {
                    "internalType": "address",
                    "name": "_toBeFined",
                    "type": "address"
                }
            ],
            "name": "createFine",
            "outputs": [],
            "stateMutability": "nonpayable",
            "type": "function"
        },
        {
            "inputs": [
                {
                    "internalType": "string",
                    "name": "_FIO",
                    "type": "string"
                },
                {
                    "internalType": "uint256",
                    "name": "_startDrive",
                    "type": "uint256"
                },
                {
                    "internalType": "uint256",
                    "name": "_accidentAmount",
                    "type": "uint256"
                },
                {
                    "internalType": "uint256[]",
                    "name": "_notPayedFines",
                    "type": "uint256[]"
                },
                {
                    "internalType": "uint256",
                    "name": "_insuranceFee",
                    "type": "uint256"
                },
                {
                    "internalType": "uint256",
                    "name": "_balance",
                    "type": "uint256"
                },
                {
                    "internalType": "bool",
                    "name": "_isDPS",
                    "type": "bool"
                }
            ],
            "name": "createUser",
            "outputs": [],
            "stateMutability": "nonpayable",
            "type": "function"
        },
        {
            "inputs": [
                {
                    "components": [
                        {
                            "internalType": "address",
                            "name": "userAddr",
                            "type": "address"
                        },
                        {
                            "internalType": "string",
                            "name": "FIO",
                            "type": "string"
                        },
                        {
                            "components": [
                                {
                                    "internalType": "string",
                                    "name": "number",
                                    "type": "string"
                                },
                                {
                                    "internalType": "uint256",
                                    "name": "validity",
                                    "type": "uint256"
                                },
                                {
                                    "internalType": "string",
                                    "name": "category",
                                    "type": "string"
                                }
                            ],
                            "internalType": "struct User.DrivingLicence",
                            "name": "dl",
                            "type": "tuple"
                        },
                        {
                            "internalType": "uint256",
                            "name": "startDrive",
                            "type": "uint256"
                        },
                        {
                            "internalType": "uint256",
                            "name": "accidentAmount",
                            "type": "uint256"
                        },
                        {
                            "internalType": "uint256[]",
                            "name": "notPayedFines",
                            "type": "uint256[]"
                        },
                        {
                            "internalType": "uint256",
                            "name": "insuranceFee",
                            "type": "uint256"
                        },
                        {
                            "internalType": "uint256",
                            "name": "balance",
                            "type": "uint256"
                        },
                        {
                            "internalType": "bool",
                            "name": "isDPS",
                            "type": "bool"
                        }
                    ],
                    "internalType": "struct User.User_str",
                    "name": "_user",
                    "type": "tuple"
                }
            ],
            "name": "createUser",
            "outputs": [],
            "stateMutability": "nonpayable",
            "type": "function"
        },
        {
            "inputs": [],
            "name": "dlProlongation",
            "outputs": [],
            "stateMutability": "nonpayable",
            "type": "function"
        },
        {
            "inputs": [
                {
                    "internalType": "uint256",
                    "name": "_finesToPay",
                    "type": "uint256"
                }
            ],
            "name": "finePayment",
            "outputs": [],
            "stateMutability": "nonpayable",
            "type": "function"
        },
        {
            "inputs": [],
            "name": "getInsPrice",
            "outputs": [
                {
                    "internalType": "uint256",
                    "name": "",
                    "type": "uint256"
                }
            ],
            "stateMutability": "view",
            "type": "function"
        },
        {
            "inputs": [],
            "name": "payForIns",
            "outputs": [],
            "stateMutability": "nonpayable",
            "type": "function"
        },
        {
            "inputs": [
                {
                    "internalType": "string",
                    "name": "_carCategory",
                    "type": "string"
                },
                {
                    "internalType": "uint256",
                    "name": "_price",
                    "type": "uint256"
                },
                {
                    "internalType": "uint256",
                    "name": "_age",
                    "type": "uint256"
                }
            ],
            "name": "registerCar",
            "outputs": [],
            "stateMutability": "nonpayable",
            "type": "function"
        },
        {
            "inputs": [
                {
                    "internalType": "string",
                    "name": "_number",
                    "type": "string"
                },
                {
                    "internalType": "uint256",
                    "name": "_validity",
                    "type": "uint256"
                },
                {
                    "internalType": "string",
                    "name": "_category",
                    "type": "string"
                }
            ],
            "name": "setDrivingLicence",
            "outputs": [],
            "stateMutability": "nonpayable",
            "type": "function"
        }
    ],
    "bytecode": "608060405260006005553480156200001657600080fd5b5060405162002b4a38038062002b4a833981016040819052620000399162000549565b866003886000015160405162000050919062000679565b908152602001604051809103902060008201518160000190805190602001906200007c9291906200032c565b50602082810151600183015560408301518051620000a192600285019201906200032c565b50508651604051889250600391620000b99162000679565b90815260200160405180910390206000820151816000019080519060200190620000e59291906200032c565b506020828101516001830155604083015180516200010a92600285019201906200032c565b50508551604051879250600391620001229162000679565b908152602001604051809103902060008201518160000190805190602001906200014e9291906200032c565b506020828101516001830155604083015180516200017392600285019201906200032c565b505084516040518692506003916200018b9162000679565b90815260200160405180910390206000820151816000019080519060200190620001b79291906200032c565b50602082810151600183015560408301518051620001dc92600285019201906200032c565b50508351604051859250600391620001f49162000679565b90815260200160405180910390206000820151816000019080519060200190620002209291906200032c565b506020828101516001830155604083015180516200024592600285019201906200032c565b505082516040518492506003916200025d9162000679565b90815260200160405180910390206000820151816000019080519060200190620002899291906200032c565b50602082810151600183015560408301518051620002ae92600285019201906200032c565b50508151604051839250600391620002c69162000679565b90815260200160405180910390206000820151816000019080519060200190620002f29291906200032c565b506020828101516001830155604083015180516200031792600285019201906200032c565b50504260065550620006d49650505050505050565b8280546200033a9062000697565b90600052602060002090601f0160209004810192826200035e5760008555620003a9565b82601f106200037957805160ff1916838001178555620003a9565b82800160010185558215620003a9579182015b82811115620003a95782518255916020019190600101906200038c565b50620003b7929150620003bb565b5090565b5b80821115620003b75760008155600101620003bc565b634e487b7160e01b600052604160045260246000fd5b60005b8381101562000405578181015183820152602001620003eb565b8381111562000415576000848401525b50505050565b600082601f8301126200042d57600080fd5b81516001600160401b03808211156200044a576200044a620003d2565b604051601f8301601f19908116603f01168101908282118183101715620004755762000475620003d2565b816040528381528660208588010111156200048f57600080fd5b620004a2846020830160208901620003e8565b9695505050505050565b600060608284031215620004bf57600080fd5b604051606081016001600160401b038082118383101715620004e557620004e5620003d2565b816040528293508451915080821115620004fe57600080fd5b6200050c868387016200041b565b83526020850151602084015260408501519150808211156200052d57600080fd5b506200053c858286016200041b565b6040830152505092915050565b600080600080600080600060e0888a0312156200056557600080fd5b87516001600160401b03808211156200057d57600080fd5b6200058b8b838c01620004ac565b985060208a0151915080821115620005a257600080fd5b620005b08b838c01620004ac565b975060408a0151915080821115620005c757600080fd5b620005d58b838c01620004ac565b965060608a0151915080821115620005ec57600080fd5b620005fa8b838c01620004ac565b955060808a01519150808211156200061157600080fd5b6200061f8b838c01620004ac565b945060a08a01519150808211156200063657600080fd5b620006448b838c01620004ac565b935060c08a01519150808211156200065b57600080fd5b506200066a8a828b01620004ac565b91505092959891949750929550565b600082516200068d818460208701620003e8565b9190910192915050565b600181811c90821680620006ac57607f821691505b60208210811415620006ce57634e487b7160e01b600052602260045260246000fd5b50919050565b61246680620006e46000396000f3fe608060405234801561001057600080fd5b50600436106100a95760003560e01c8063b23dc49e11610071578063b23dc49e14610116578063b52c78c01461011e578063bbabd84114610126578063bddff58e14610139578063e17d35cf1461014c578063e7b36f141461015f57600080fd5b806301d12e4f146100ae57806321b9c5cb146100c35780638b9c92aa146100d657806393f6b632146100f0578063afd641db14610103575b600080fd5b6100c16100bc366004611e3a565b610167565b005b6100c16100d1366004611f3c565b6102cb565b6100de6104b5565b60405190815260200160405180910390f35b6100c16100fe366004612082565b6104f2565b6100c1610111366004612187565b610725565b6100c1610a4a565b6100de610b0b565b6100c16101343660046121a0565b610f5a565b6100c16101473660046121a0565b611430565b6100c161015a3660046121c2565b611788565b6100c1611856565b8282828160038460405161017b9190612210565b908152602001604051809103902060010154146101d05760405162461bcd60e51b815260206004820152600e60248201526d77726f6e672076616c696469747960901b60448201526064015b60405180910390fd5b80805190602001206003846040516101e89190612210565b90815260200160405180910390206002016040516102069190612286565b60405180910390201461022b5760405162461bcd60e51b81526004016101c790612322565b6040805160608101825287815260208082018890528183018790523360009081526001909152918220548254919290918391908390811061026e5761026e61234a565b90600052602060002090600b0201600201600082015181600001908051906020019061029b929190611c86565b506020828101516001830155604083015180516102be9260028501920190611c86565b5050505050505050505050565b604080516101208101825233815260208082018a8152835160a0808201865260016060808401828152600360fc1b608080870182905291865260008689018190528a51808c018c52858152808a0192909252868b01919091529888019490945286018d90529185018b9052840189905260c0840188905260e08401879052851515610100850152845490810185559380528251600b9094027f290decd9548b62a8d60345a988386fc84ba6bc95484008f6362f93160ef3e563810180546001600160a01b03969096166001600160a01b0319909616959095178555905180519394859490936103de937f290decd9548b62a8d60345a988386fc84ba6bc95484008f6362f93160ef3e56401920190611c86565b5060408201518051805160028401916103fc91839160200190611c86565b5060208281015160018301556040830151805161041f9260028501920190611c86565b505050606082015160058201556080820151600682015560a08201518051610451916007840191602090910190611d0a565b5060c0820151600882015560e0820151600982015561010090910151600a909101805460ff191691151591909117905560058054336000908152600160208190526040822083905592916104a6908490612376565b90915550505050505050505050565b33600090815260016020526040812054815482919081106104d8576104d861234a565b90600052602060002090600b020160070180549050905090565b604080820151805160208201519183015192519092908290600390610518908690612210565b908152602001604051809103902060010154146105685760405162461bcd60e51b815260206004820152600e60248201526d77726f6e672076616c696469747960901b60448201526064016101c7565b80805190602001206003846040516105809190612210565b908152602001604051809103902060020160405161059e9190612286565b6040518091039020146105c35760405162461bcd60e51b81526004016101c790612322565b6000805460018101825590805284517f290decd9548b62a8d60345a988386fc84ba6bc95484008f6362f93160ef3e563600b90920291820180546001600160a01b0319166001600160a01b0390921691909117815560208087015180518894610652937f290decd9548b62a8d60345a988386fc84ba6bc95484008f6362f93160ef3e564909101920190611c86565b50604082015180518051600284019161067091839160200190611c86565b506020828101516001830155604083015180516106939260028501920190611c86565b505050606082015160058201556080820151600682015560a082015180516106c5916007840191602090910190611d0a565b5060c0820151600882015560e0820151600982015561010090910151600a909101805460ff1916911515919091179055600580543360009081526001602081905260408220839055929161071a908490612376565b909155505050505050565b33600090815260016020526040812054815482919081106107485761074861234a565b90600052602060002090600b02016007018054806020026020016040519081016040528092919081815260200182805480156107a357602002820191906000526020600020905b81548152602001906001019080831161078f575b50508351939450505081151590506107f35760405162461bcd60e51b8152602060048201526013602482015272105b1b08199a5b995cc8185c99481c185e5959606a1b60448201526064016101c7565b828110156108695760405162461bcd60e51b815260206004820152603d60248201527f596f7520676f74206c6573732066696e65732c2075736520636865636b46696e60448201527f6573416d6f756e7420746f206b6e6f77206578616374206e756d62657200000060648201526084016101c7565b60005b83811015610a445742838261088260018661238e565b61088c919061238e565b8151811061089c5761089c61234a565b602002602001015160196108b09190612376565b111561094b5760405173d9eaa853bbcccf5cb0a49241a7f69d743f3cf04990600090674563918244f400009082818181858883f193505050501580156108fa573d6000803e3d6000fd5b50336000908152600160205260408120548154600592919081106109205761092061234a565b90600052602060002090600b02016009016000828254610940919061238e565b909155506109db9050565b60405173d9eaa853bbcccf5cb0a49241a7f69d743f3cf04990600090678ac7230489e800009082818181858883f1935050505015801561098f573d6000803e3d6000fd5b50336000908152600160205260408120548154600a92919081106109b5576109b561234a565b90600052602060002090600b020160090160008282546109d5919061238e565b90915550505b33600090815260016020526040812054815481106109fb576109fb61234a565b90600052602060002090600b0201600701805480610a1b57610a1b6123a5565b600190038181906000526020600020016000905590558080610a3c906123bb565b91505061086c565b50505050565b6000610a54610b0b565b6004805460405163342a9fdf60e21b81523392810192909252602482018390529192506001600160a01b039091169063d0aa7f7c90604401600060405180830381600087803b158015610aa657600080fd5b505af1158015610aba573d6000803e3d6000fd5b5050336000908152600160205260408120548154859450919250908110610ae357610ae361234a565b90600052602060002090600b02016009016000828254610b03919061238e565b909155505050565b336000908152600160205260408120548154829182918110610b2f57610b2f61234a565b6000918252602091829020604080516101208101909152600b9092020180546001600160a01b031682526001810180549293919291840191610b709061224b565b80601f0160208091040260200160405190810160405280929190818152602001828054610b9c9061224b565b8015610be95780601f10610bbe57610100808354040283529160200191610be9565b820191906000526020600020905b815481529060010190602001808311610bcc57829003601f168201915b5050505050815260200160028201604051806060016040529081600082018054610c129061224b565b80601f0160208091040260200160405190810160405280929190818152602001828054610c3e9061224b565b8015610c8b5780601f10610c6057610100808354040283529160200191610c8b565b820191906000526020600020905b815481529060010190602001808311610c6e57829003601f168201915b5050505050815260200160018201548152602001600282018054610cae9061224b565b80601f0160208091040260200160405190810160405280929190818152602001828054610cda9061224b565b8015610d275780601f10610cfc57610100808354040283529160200191610d27565b820191906000526020600020905b815481529060010190602001808311610d0a57829003601f168201915b5050505050815250508152602001600582015481526020016006820154815260200160078201805480602002602001604051908101604052809291908181526020018280548015610d9757602002820191906000526020600020905b815481526020019060010190808311610d83575b505050918352505060088201546020808301919091526009830154604080840191909152600a9093015460ff1615156060928301523360009081526002909152828120835192830190935282549394509290919082908290610df89061224b565b80601f0160208091040260200160405190810160405280929190818152602001828054610e249061224b565b8015610e715780601f10610e4657610100808354040283529160200191610e71565b820191906000526020600020905b815481529060010190602001808311610e5457829003601f168201915b5050505050815260200160018201548152602001600282015481525050905060006301e13380836060015142610ea7919061238e565b610eb191906123d6565b60048054602085015160408087015160a08901515160808a015192516310a76ea560e31b815295860193909352602485015260448401919091526064830152608482018390529192506000916001600160a01b03169063853b75289060a401602060405180830381865afa158015610f2d573d6000803e3d6000fd5b505050506040513d601f19601f82011682018060405250810190610f5191906123f8565b95945050505050565b3360009081526001602052604081205481548291908110610f7d57610f7d61234a565b6000918252602091829020604080516101208101909152600b9092020180546001600160a01b031682526001810180549293919291840191610fbe9061224b565b80601f0160208091040260200160405190810160405280929190818152602001828054610fea9061224b565b80156110375780601f1061100c57610100808354040283529160200191611037565b820191906000526020600020905b81548152906001019060200180831161101a57829003601f168201915b50505050508152602001600282016040518060600160405290816000820180546110609061224b565b80601f016020809104026020016040519081016040528092919081815260200182805461108c9061224b565b80156110d95780601f106110ae576101008083540402835291602001916110d9565b820191906000526020600020905b8154815290600101906020018083116110bc57829003601f168201915b50505050508152602001600182015481526020016002820180546110fc9061224b565b80601f01602080910402602001604051908101604052809291908181526020018280546111289061224b565b80156111755780601f1061114a57610100808354040283529160200191611175565b820191906000526020600020905b81548152906001019060200180831161115857829003601f168201915b50505050508152505081526020016005820154815260200160068201548152602001600782018054806020026020016040519081016040528092919081815260200182805480156111e557602002820191906000526020600020905b8154815260200190600101908083116111d1575b50505091835250506008820154602082015260098201546040820152600a9091015460ff161515606090910152610100810151909150151560011461125e5760405162461bcd60e51b815260206004820152600f60248201526e596f7520617265206e6f742044505360881b60448201526064016101c7565b6001600160a01b038216600090815260016020526040812054815481106112875761128761234a565b90600052602060002090600b020160080154600014156112e95760405162461bcd60e51b815260206004820152601d60248201527f596f7520646964206e6f742070617920666f7220696e637572616e636500000060448201526064016101c7565b6004546001600160a01b038381166000908152600160205260408120548154929093169263ec69b9d3928692919081106113255761132561234a565b600091825260209091206008600b9092020101546040516001600160e01b031960e085901b1681526001600160a01b0390921660048301526024820152604401600060405180830381600087803b15801561137f57600080fd5b505af1158015611393573d6000803e3d6000fd5b505050506001600160a01b038216600090815260016020526040812054815481106113c0576113c061234a565b90600052602060002090600b020160080154600a6113de9190612411565b6001600160a01b038316600090815260016020526040812054815481106114075761140761234a565b90600052602060002090600b020160090160008282546114279190612376565b90915550505050565b33600090815260016020526040812054815482919081106114535761145361234a565b6000918252602091829020604080516101208101909152600b9092020180546001600160a01b0316825260018101805492939192918401916114949061224b565b80601f01602080910402602001604051908101604052809291908181526020018280546114c09061224b565b801561150d5780601f106114e25761010080835404028352916020019161150d565b820191906000526020600020905b8154815290600101906020018083116114f057829003601f168201915b50505050508152602001600282016040518060600160405290816000820180546115369061224b565b80601f01602080910402602001604051908101604052809291908181526020018280546115629061224b565b80156115af5780601f10611584576101008083540402835291602001916115af565b820191906000526020600020905b81548152906001019060200180831161159257829003601f168201915b50505050508152602001600182015481526020016002820180546115d29061224b565b80601f01602080910402602001604051908101604052809291908181526020018280546115fe9061224b565b801561164b5780601f106116205761010080835404028352916020019161164b565b820191906000526020600020905b81548152906001019060200180831161162e57829003601f168201915b50505050508152505081526020016005820154815260200160068201548152602001600782018054806020026020016040519081016040528092919081815260200182805480156116bb57602002820191906000526020600020905b8154815260200190600101908083116116a7575b50505091835250506008820154602082015260098201546040820152600a9091015460ff16151560609091015261010081015190915015156001146117345760405162461bcd60e51b815260206004820152600f60248201526e596f7520617265206e6f742044505360881b60448201526064016101c7565b6001600160a01b0382166000908152600160205260408120548154811061175d5761175d61234a565b600091825260208083206007600b909302019190910180546001810182559083529120429101555050565b825160208085019190912033600090815260019092526040822054825491929181106117b6576117b661234a565b90600052602060002090600b02016002016002016040516117d79190612286565b6040518091039020146117fc5760405162461bcd60e51b81526004016101c790612322565b6040805160608101825284815260208082018590528183018490523360009081526002825292909220815180519293919261183a9284920190611c86565b5060208201516001820155604090910151600290910155505050565b33600090815260016020526040812054815482919081106118795761187961234a565b6000918252602091829020604080516101208101909152600b9092020180546001600160a01b0316825260018101805492939192918401916118ba9061224b565b80601f01602080910402602001604051908101604052809291908181526020018280546118e69061224b565b80156119335780601f1061190857610100808354040283529160200191611933565b820191906000526020600020905b81548152906001019060200180831161191657829003601f168201915b505050505081526020016002820160405180606001604052908160008201805461195c9061224b565b80601f01602080910402602001604051908101604052809291908181526020018280546119889061224b565b80156119d55780601f106119aa576101008083540402835291602001916119d5565b820191906000526020600020905b8154815290600101906020018083116119b857829003601f168201915b50505050508152602001600182015481526020016002820180546119f89061224b565b80601f0160208091040260200160405190810160405280929190818152602001828054611a249061224b565b8015611a715780601f10611a4657610100808354040283529160200191611a71565b820191906000526020600020905b815481529060010190602001808311611a5457829003601f168201915b5050505050815250508152602001600582015481526020016006820154815260200160078201805480602002602001604051908101604052809291908181526020018280548015611ae157602002820191906000526020600020905b815481526020019060010190808311611acd575b50505091835250506008820154602082015260098201546040820152600a9091015460ff161515606090910152905042611b1e8162278d00612376565b8260400151602001511015611bf25760405162461bcd60e51b815260206004820152608260248201527f596f75722064726976696e67206c6963656e636520617265206578706972696e60448201527f6720696e206c657373207468656e206d6f6e74682e20596f752063616e206e6f60648201527f742070726f6c6f6e67617465207468656d207468726f7567682074686973207060848201527f6f7274616c2e20506c6561736520766973697420706f6c69636520737461746960a48201526137b760f11b60c482015260e4016101c7565b60a08201515115611c3b5760405162461bcd60e51b815260206004820152601360248201527250617920796f75722066696e6573206475646560681b60448201526064016101c7565b3360009081526001602052604081205481546301e133809291908110611c6357611c6361234a565b90600052602060002090600b020160020160010160008282546114279190612376565b828054611c929061224b565b90600052602060002090601f016020900481019282611cb45760008555611cfa565b82601f10611ccd57805160ff1916838001178555611cfa565b82800160010185558215611cfa579182015b82811115611cfa578251825591602001919060010190611cdf565b50611d06929150611d44565b5090565b828054828255906000526020600020908101928215611cfa5791602002820182811115611cfa578251825591602001919060010190611cdf565b5b80821115611d065760008155600101611d45565b634e487b7160e01b600052604160045260246000fd5b604051610120810167ffffffffffffffff81118282101715611d9357611d93611d59565b60405290565b604051601f8201601f1916810167ffffffffffffffff81118282101715611dc257611dc2611d59565b604052919050565b600082601f830112611ddb57600080fd5b813567ffffffffffffffff811115611df557611df5611d59565b611e08601f8201601f1916602001611d99565b818152846020838601011115611e1d57600080fd5b816020850160208301376000918101602001919091529392505050565b600080600060608486031215611e4f57600080fd5b833567ffffffffffffffff80821115611e6757600080fd5b611e7387838801611dca565b9450602086013593506040860135915080821115611e9057600080fd5b50611e9d86828701611dca565b9150509250925092565b600082601f830112611eb857600080fd5b8135602067ffffffffffffffff821115611ed457611ed4611d59565b8160051b611ee3828201611d99565b9283528481018201928281019087851115611efd57600080fd5b83870192505b84831015611f1c57823582529183019190830190611f03565b979650505050505050565b80358015158114611f3757600080fd5b919050565b600080600080600080600060e0888a031215611f5757600080fd5b873567ffffffffffffffff80821115611f6f57600080fd5b611f7b8b838c01611dca565b985060208a0135975060408a0135965060608a0135915080821115611f9f57600080fd5b50611fac8a828b01611ea7565b9450506080880135925060a08801359150611fc960c08901611f27565b905092959891949750929550565b80356001600160a01b0381168114611f3757600080fd5b60006060828403121561200057600080fd5b6040516060810167ffffffffffffffff828210818311171561202457612024611d59565b81604052829350843591508082111561203c57600080fd5b61204886838701611dca565b835260208501356020840152604085013591508082111561206857600080fd5b5061207585828601611dca565b6040830152505092915050565b60006020828403121561209457600080fd5b813567ffffffffffffffff808211156120ac57600080fd5b9083019061012082860312156120c157600080fd5b6120c9611d6f565b6120d283611fd7565b81526020830135828111156120e657600080fd5b6120f287828601611dca565b60208301525060408301358281111561210a57600080fd5b61211687828601611fee565b604083015250606083013560608201526080830135608082015260a08301358281111561214257600080fd5b61214e87828601611ea7565b60a08301525060c083013560c082015260e083013560e08201526101009150612178828401611f27565b91810191909152949350505050565b60006020828403121561219957600080fd5b5035919050565b6000602082840312156121b257600080fd5b6121bb82611fd7565b9392505050565b6000806000606084860312156121d757600080fd5b833567ffffffffffffffff8111156121ee57600080fd5b6121fa86828701611dca565b9660208601359650604090950135949350505050565b6000825160005b818110156122315760208186018101518583015201612217565b81811115612240576000828501525b509190910192915050565b600181811c9082168061225f57607f821691505b6020821081141561228057634e487b7160e01b600052602260045260246000fd5b50919050565b600080835481600182811c9150808316806122a257607f831692505b60208084108214156122c257634e487b7160e01b86526022600452602486fd5b8180156122d657600181146122e757612314565b60ff19861689528489019650612314565b60008a81526020902060005b8681101561230c5781548b8201529085019083016122f3565b505084890196505b509498975050505050505050565b6020808252600e908201526d77726f6e672063617465676f727960901b604082015260600190565b634e487b7160e01b600052603260045260246000fd5b634e487b7160e01b600052601160045260246000fd5b6000821982111561238957612389612360565b500190565b6000828210156123a0576123a0612360565b500390565b634e487b7160e01b600052603160045260246000fd5b60006000198214156123cf576123cf612360565b5060010190565b6000826123f357634e487b7160e01b600052601260045260246000fd5b500490565b60006020828403121561240a57600080fd5b5051919050565b600081600019048311821515161561242b5761242b612360565b50029056fea2646970667358221220fd6fb7843b49c4e097a0bde454ce705d17ba138a6cf85215dbb15cb20e842d1164736f6c634300080b0033",
    "sourcePath": "/Users/artem.gromov/Documents/blockchain/User.sol",
    "compiler": {
        "name": "solc",
        "version": "0.8.11+commit.d7f03943"
    },
    "functionHashes": {
        "checkFinesAmount()": "8b9c92aa",
        "createAccident(address)": "bbabd841",
        "createFine(address)": "bddff58e",
        "createUser((address,string,(string,uint256,string),uint256,uint256,uint256[],uint256,uint256,bool))": "93f6b632",
        "createUser(string,uint256,uint256,uint256[],uint256,uint256,bool)": "21b9c5cb",
        "dlProlongation()": "e7b36f14",
        "finePayment(uint256)": "afd641db",
        "getInsPrice()": "b52c78c0",
        "payForIns()": "b23dc49e",
        "registerCar(string,uint256,uint256)": "e17d35cf",
        "setDrivingLicence(string,uint256,string)": "01d12e4f"
    },
    "gasEstimates": {
        "creation": {
            "codeDepositCost": "1863600",
            "executionCost": "infinite",
            "totalCost": "infinite"
        },
        "external": {
            "checkFinesAmount()": "6724",
            "createAccident(address)": "infinite",
            "createFine(address)": "infinite",
            "createUser((address,string,(string,uint256,string),uint256,uint256,uint256[],uint256,uint256,bool))": "infinite",
            "createUser(string,uint256,uint256,uint256[],uint256,uint256,bool)": "infinite",
            "dlProlongation()": "infinite",
            "finePayment(uint256)": "infinite",
            "getInsPrice()": "infinite",
            "payForIns()": "infinite",
            "registerCar(string,uint256,uint256)": "infinite",
            "setDrivingLicence(string,uint256,string)": "infinite"
        }
    }
}